{
  "_format": "hh-sol-artifact-1",
  "contractName": "CrowdFunding",
  "sourceName": "contracts/CrowdFunding.sol",
  "abi": [
    {
      "inputs": [
        {
          "internalType": "uint256",
          "name": "",
          "type": "uint256"
        }
      ],
      "name": "campaigns",
      "outputs": [
        {
          "internalType": "address",
          "name": "owner",
          "type": "address"
        },
        {
          "internalType": "string",
          "name": "title",
          "type": "string"
        },
        {
          "internalType": "string",
          "name": "description",
          "type": "string"
        },
        {
          "internalType": "uint256",
          "name": "target",
          "type": "uint256"
        },
        {
          "internalType": "uint256",
          "name": "deadline",
          "type": "uint256"
        },
        {
          "internalType": "uint256",
          "name": "amountCollected",
          "type": "uint256"
        },
        {
          "internalType": "string",
          "name": "image",
          "type": "string"
        }
      ],
      "stateMutability": "view",
      "type": "function"
    },
    {
      "inputs": [
        {
          "internalType": "address",
          "name": "_owner",
          "type": "address"
        },
        {
          "internalType": "string",
          "name": "_title",
          "type": "string"
        },
        {
          "internalType": "string",
          "name": "_description",
          "type": "string"
        },
        {
          "internalType": "uint256",
          "name": "_target",
          "type": "uint256"
        },
        {
          "internalType": "uint256",
          "name": "_deadline",
          "type": "uint256"
        },
        {
          "internalType": "string",
          "name": "_image",
          "type": "string"
        }
      ],
      "name": "createCampaign",
      "outputs": [
        {
          "internalType": "uint256",
          "name": "",
          "type": "uint256"
        }
      ],
      "stateMutability": "nonpayable",
      "type": "function"
    },
    {
      "inputs": [
        {
          "internalType": "uint256",
          "name": "_id",
          "type": "uint256"
        }
      ],
      "name": "donateToCampaign",
      "outputs": [],
      "stateMutability": "payable",
      "type": "function"
    },
    {
      "inputs": [],
      "name": "getCampaigns",
      "outputs": [
        {
          "components": [
            {
              "internalType": "address",
              "name": "owner",
              "type": "address"
            },
            {
              "internalType": "string",
              "name": "title",
              "type": "string"
            },
            {
              "internalType": "string",
              "name": "description",
              "type": "string"
            },
            {
              "internalType": "uint256",
              "name": "target",
              "type": "uint256"
            },
            {
              "internalType": "uint256",
              "name": "deadline",
              "type": "uint256"
            },
            {
              "internalType": "uint256",
              "name": "amountCollected",
              "type": "uint256"
            },
            {
              "internalType": "string",
              "name": "image",
              "type": "string"
            },
            {
              "internalType": "address[]",
              "name": "donators",
              "type": "address[]"
            },
            {
              "internalType": "uint256[]",
              "name": "donations",
              "type": "uint256[]"
            }
          ],
          "internalType": "struct CrowdFunding.Campaign[]",
          "name": "",
          "type": "tuple[]"
        }
      ],
      "stateMutability": "view",
      "type": "function"
    },
    {
      "inputs": [
        {
          "internalType": "uint256",
          "name": "_id",
          "type": "uint256"
        }
      ],
      "name": "getDonators",
      "outputs": [
        {
          "internalType": "address[]",
          "name": "",
          "type": "address[]"
        },
        {
          "internalType": "uint256[]",
          "name": "",
          "type": "uint256[]"
        }
      ],
      "stateMutability": "view",
      "type": "function"
    },
    {
      "inputs": [],
      "name": "numberOfCampaigns",
      "outputs": [
        {
          "internalType": "uint256",
          "name": "",
          "type": "uint256"
        }
      ],
      "stateMutability": "view",
      "type": "function"
    }
  ],
  "bytecode": "0x6080604052600060015534801561001557600080fd5b50610f69806100256000396000f3fe6080604052600436106100555760003560e01c806307ca140d1461005a5780630fa91fa914610083578063141961bc146100b157806342a4fda8146100e45780639943e3a1146100f9578063a6b0363314610119575b600080fd5b34801561006657600080fd5b5061007060015481565b6040519081526020015b60405180910390f35b34801561008f57600080fd5b506100a361009e366004610962565b61013b565b60405161007a92919061097b565b3480156100bd57600080fd5b506100d16100cc366004610962565b61020a565b60405161007a9796959493929190610a45565b6100f76100f2366004610962565b6103e7565b005b34801561010557600080fd5b50610070610114366004610b52565b6104bf565b34801561012557600080fd5b5061012e6105c0565b60405161007a9190610c81565b600081815260208181526040918290206007810180548451818502810185019095528085526060948594929360080192909184918301828280156101a857602002820191906000526020600020905b81546001600160a01b0316815260019091019060200180831161018a575b50505050509150808054806020026020016040519081016040528092919081815260200182805480156101fa57602002820191906000526020600020905b8154815260200190600101908083116101e6575b5050505050905091509150915091565b600060208190529081526040902080546001820180546001600160a01b03909216929161023690610d90565b80601f016020809104026020016040519081016040528092919081815260200182805461026290610d90565b80156102af5780601f10610284576101008083540402835291602001916102af565b820191906000526020600020905b81548152906001019060200180831161029257829003601f168201915b5050505050908060020180546102c490610d90565b80601f01602080910402602001604051908101604052809291908181526020018280546102f090610d90565b801561033d5780601f106103125761010080835404028352916020019161033d565b820191906000526020600020905b81548152906001019060200180831161032057829003601f168201915b50505050509080600301549080600401549080600501549080600601805461036490610d90565b80601f016020809104026020016040519081016040528092919081815260200182805461039090610d90565b80156103dd5780601f106103b2576101008083540402835291602001916103dd565b820191906000526020600020905b8154815290600101906020018083116103c057829003601f168201915b5050505050905087565b600081815260208181526040808320600781018054600181810183559186528486200180546001600160a01b0319163317905560088201805491820181558552928420349301839055805491519293909290916001600160a01b031690849061045790600160fd1b815260010190565b60006040518083038185875af1925050503d8060008114610494576040519150601f19603f3d011682016040523d82523d6000602084013e610499565b606091505b5050905080156104b9578282600501546104b39190610dda565b60058301555b50505050565b6001546000908152602081905260408120600481015442116105375760405162461bcd60e51b815260206004820152602760248201527f54686520646561646c696e652073686f756c64206265206461746520696e20666044820152663aba3ab932901760c91b606482015260840160405180910390fd5b80546001600160a01b0319166001600160a01b0389161781556001810161055e8882610e44565b506002810161056d8782610e44565b50600381018590556004810184905560006005820155600681016105918482610e44565b50600180549060006105a283610f04565b9091555050600180546105b491610dda565b98975050505050505050565b6060600060015467ffffffffffffffff8111156105df576105df610aaf565b60405190808252806020026020018201604052801561066857816020015b61065560405180610120016040528060006001600160a01b0316815260200160608152602001606081526020016000815260200160008152602001600081526020016060815260200160608152602001606081525090565b8152602001906001900390816105fd5790505b50905060005b60015481101561095c57600081815260208181526040918290208251610120810190935280546001600160a01b03168352600181018054919392849290840191906106b890610d90565b80601f01602080910402602001604051908101604052809291908181526020018280546106e490610d90565b80156107315780601f1061070657610100808354040283529160200191610731565b820191906000526020600020905b81548152906001019060200180831161071457829003601f168201915b5050505050815260200160028201805461074a90610d90565b80601f016020809104026020016040519081016040528092919081815260200182805461077690610d90565b80156107c35780601f10610798576101008083540402835291602001916107c3565b820191906000526020600020905b8154815290600101906020018083116107a657829003601f168201915b505050505081526020016003820154815260200160048201548152602001600582015481526020016006820180546107fa90610d90565b80601f016020809104026020016040519081016040528092919081815260200182805461082690610d90565b80156108735780601f1061084857610100808354040283529160200191610873565b820191906000526020600020905b81548152906001019060200180831161085657829003601f168201915b50505050508152602001600782018054806020026020016040519081016040528092919081815260200182805480156108d557602002820191906000526020600020905b81546001600160a01b031681526001909101906020018083116108b7575b505050505081526020016008820180548060200260200160405190810160405280929190818152602001828054801561092d57602002820191906000526020600020905b815481526020019060010190808311610919575b50505050508152505083838151811061094857610948610f1d565b60209081029190910101525060010161066e565b50919050565b60006020828403121561097457600080fd5b5035919050565b604080825283519082018190526000906020906060840190828701845b828110156109bd5781516001600160a01b031684529284019290840190600101610998565b5050508381038285015284518082528583019183019060005b818110156109f2578351835292840192918401916001016109d6565b5090979650505050505050565b6000815180845260005b81811015610a2557602081850181015186830182015201610a09565b506000602082860101526020601f19601f83011685010191505092915050565b6001600160a01b038816815260e060208201819052600090610a69908301896109ff565b8281036040840152610a7b81896109ff565b90508660608401528560808401528460a084015282810360c0840152610aa181856109ff565b9a9950505050505050505050565b634e487b7160e01b600052604160045260246000fd5b600082601f830112610ad657600080fd5b813567ffffffffffffffff80821115610af157610af1610aaf565b604051601f8301601f19908116603f01168101908282118183101715610b1957610b19610aaf565b81604052838152866020858801011115610b3257600080fd5b836020870160208301376000602085830101528094505050505092915050565b60008060008060008060c08789031215610b6b57600080fd5b86356001600160a01b0381168114610b8257600080fd5b9550602087013567ffffffffffffffff80821115610b9f57600080fd5b610bab8a838b01610ac5565b96506040890135915080821115610bc157600080fd5b610bcd8a838b01610ac5565b9550606089013594506080890135935060a0890135915080821115610bf157600080fd5b50610bfe89828a01610ac5565b9150509295509295509295565b60008151808452602080850194506020840160005b83811015610c455781516001600160a01b031687529582019590820190600101610c20565b509495945050505050565b60008151808452602080850194506020840160005b83811015610c4557815187529582019590820190600101610c65565b600060208083018184528085518083526040925060408601915060408160051b87010184880160005b83811015610d8257888303603f19018552815180516001600160a01b0316845261012088820151818a870152610ce2828701826109ff565b9150508782015185820389870152610cfa82826109ff565b606084810151908801526080808501519088015260a0808501519088015260c080850151888303828a01529193509150610d3483826109ff565b9250505060e08083015186830382880152610d4f8382610c0b565b925050506101008083015192508582038187015250610d6e8183610c50565b968901969450505090860190600101610caa565b509098975050505050505050565b600181811c90821680610da457607f821691505b60208210810361095c57634e487b7160e01b600052602260045260246000fd5b634e487b7160e01b600052601160045260246000fd5b80820180821115610ded57610ded610dc4565b92915050565b601f821115610e3f576000816000526020600020601f850160051c81016020861015610e1c5750805b601f850160051c820191505b81811015610e3b57828155600101610e28565b5050505b505050565b815167ffffffffffffffff811115610e5e57610e5e610aaf565b610e7281610e6c8454610d90565b84610df3565b602080601f831160018114610ea75760008415610e8f5750858301515b600019600386901b1c1916600185901b178555610e3b565b600085815260208120601f198616915b82811015610ed657888601518255948401946001909101908401610eb7565b5085821015610ef45787850151600019600388901b60f8161c191681555b5050505050600190811b01905550565b600060018201610f1657610f16610dc4565b5060010190565b634e487b7160e01b600052603260045260246000fdfea2646970667358221220aa1ff0ac7a371b7c20b298ad204087c108a648b8b065abf1bb6fcf778425b9e064736f6c63430008170033",
  "linkReferences": {},
  "deployedLinkReferences": {}
}